:020000040800F2
:10000000900A0020010300083F0300084103000894
:1000100043030008450300084703000800000000F0
:10002000000000000000000000000000490300087C
:100030004B030008000000004D030008411F0008AA
:100040005103000851030008510300085103000840
:100050005103000851030008510300085103000830
:100060005103000851030008510300085103000820
:1000700051030008510300087515000851030008DA
:1000800051030008D115000851030008510300086E
:1000900051030008510300085103000851030008F0
:1000A00051030008510300085103000851030008E0
:1000B00051030008510300085103000851030008D0
:1000C00051030008510300085103000851030008C0
:1000D0005103000849250008C925000851030008FC
:1000E00051030008510300085103000851030008A0
:1000F0005103000851030008510300085103000890
:10010000510300085103000851030008510300087F
:10011000510300085103000851030008510300086F
:10012000510300085103000851030008510300085F
:10013000510300085103000851030008510300084F
:10014000510300085103000851030008510300083F
:10015000510300085103000851030008510300082F
:10016000510300085103000851030008510300081F
:10017000510300085103000851030008000000006B
:10018000510300085103000800F002F800F0A8F83D
:1001900014A696E8000CB244B344DA4501D100F04D
:1001A0009FF8BAE80F000FA696E83000A5EB04050B
:1001B00004EB0607AAEB0704A7F101074FEA1515A0
:1001C0004FEA3414A4F10104AC4201D300F088F8E2
:1001D00013F0010F18BFFB1A43F0010300F001F800
:1001E000DBE718478C3E0000AC3E0000103A24BF0D
:1001F00078C878C1FAD8520724BF30C830C144BF8C
:1002000004680C6070470000704700000023002461
:1002100000250026103A28BF78C1FBD8520728BF16
:1002200030C148BF0B6070476E2900F0D181702942
:1002300000F01783662903F0F485652903F0F18542
:10024000672903F0EE85612903F0ED8503681B0A39
:1002500028BF41F08001692900F07E81642900F007
:100260007B81752900F078816F2900F0A5827829BB
:1002700000F0E382E92900F03F82E42900F03C82AB
:10028000F52900F03982EF2900F0A282F82900F068
:10029000E2820368DB0928BF41F08001632900F096
:1002A000EC87732900F0F187E32900F0FC87F3293C
:1002B00001F00180002070471FB503F0A5FD01F09B
:1002C0004FF804000020002103F088FB401C606010
:1002D0000020002103F06CFBE0601FBD10B510BDD5
:1002E00001F011F81146FFF7E7FF02F071FB01F092
:1002F000EDF803B4FFF7F2FF03BC01F033F900009F
:1003000017481849184B99423CBF50F8042B41F844
:10031000042BF8D3154B16494FF000028B4238BF1F
:1003200043F8042BFAD3DFF84C00016841F4700164
:100330000160BFF34F8FBFF36F8F0F480047FEE799
:10034000FEE7FEE7FEE7FEE7FEE7FEE7FEE7FEE785
:10035000FEE7000009480A490A4A0B4B70470000B3
:10036000C041000800000020100000201000002004
:10037000900A002088ED00E0890100089004002028
:10038000900A002090060020900600200FB41CB5B3
:10039000084B06AA7B4469460090059800F031F9A5
:1003A00004460020694600F03FF920461CBC5DF879
:1003B00014FB00009102000010B5431C02E010F88D
:1003C000011B71B18107FAD14FF0013202C88C1ABA
:1003D0008C4314EAC211F9D0C01A0A0603D0C01E19
:1003E00010BDC01A10BD0A0401D0801E10BD090244
:1003F000FCD0401E10BD40EA010370B59B072ED112
:100400004FF00136042A2AD308C810C99D1B9D430A
:10041000121F15EAC61517D0D8B2E1B2401A50EA39
:10042000056110D198B2A1B2401A50EA05410AD133
:1004300023F07F4024F07F41401A50EA052102D189
:10044000180EA0EB146070BDA342DBD018BA21BA1D
:10045000884201D9012070BD4FF0FF3070BD0AB94C
:10046000002070BD10F8013B11F8014B63B1A342AD
:100470000AD1521E08D010F8013B11F8014B1BB1F4
:10048000A34201D1521EEDD1181B70BD70477047B9
:10049000704770B5044685690068C10601D53026ED
:1004A00000E02026C00707D070BDD4E90121304606
:1004B0009047206A401C20626D1EF6D570BD70B555
:1004C000044685690078C00707D170BDD4E90121D1
:1004D00020209047206A401C20626D1EF6D570BD1A
:1004E00009684A0501D540B27047C905FCD500B27C
:1004F000704709684A0501D5C0B27047C905FCD5E7
:1005000080B2704770B50C460546012A05D02878A0
:10051000800600D5EA69002302E0012305E05B1CA8
:10052000934202D2E05C0028F9D1A869E618C01A0B
:10053000A861286A184428622846FFF7AAFF04E049
:10054000D5E9012114F8010B9047B442F8D32846AD
:10055000FFF7B5FF70BD00002DE9F041064600240D
:1005600010687529314616A510D0FFF7B9FF00288D
:1005700002DA404213A507E031688A0701D512A5C7
:1005800002E0490704D511A5012401E0FFF7B1FFFE
:1005900000210A2206F1240709E0B0FBF2FCB0FBBF
:1005A000F2F302FB1C00303078541846491C002836
:1005B000F3D123462A463046BDE8F04100F068BA40
:1005C000000000002D0000002B00000020000000B3
:1005D00011680268006A530501D508700AE0D30566
:1005E00001D5088006E0130603D5C217C1E9000251
:1005F00000E008600120704701694A1C0261087828
:10060000704700B58FB0CDE9013100210591054952
:100610007944CDE903101146684600F02DF90FB07A
:1006200000BD0000E5FFFFFF0A6802F8010B0A6049
:10063000704700002DE9FF5F15468A460446DFF843
:10064000AC80F8440027D8E900103E46CDE9001000
:1006500010E03AF816106A4602A800F030FE411C7D
:1006600007D02178890603D5E269391891420DD85F
:100670000744761C2078800602D5E069B84205DD83
:10068000AE42E6DB3AF816000028E2D1A069C01BB2
:10069000A0612046FFF7FDFED8E90010CDE900106B
:1006A000002017E03AF818106A4602A800F007FE8A
:1006B000B0F1FF3F81460BD000250DF1080B05E09E
:1006C000D4E901211BF8050090476D1C4D45F7D377
:1006D00008F10100B0428046E4DB206A3844206221
:1006E0002046FFF7ECFE00F003B80000E6370000FC
:1006F0003FBCBDE8C09F00002DE9F0418046D21DFF
:1007000022F007020025D2E90002F52915A614D02F
:10071000011E72F1000106DA0023D0EB030063EB47
:10072000020211A608E0D8F800108B0701D50FA629
:1007300002E0490701D50EA601251146002408F163
:10074000240704E000F05FF930323A55641C50EAA7
:100750000102F7D12B46324621464046BDE8F04122
:1007600000F096B9000000002D0000002B000000F2
:100770002000000030B4002100F1240408E002F061
:100780000705D208303542EA4372DB086554491C3C
:1007900052EA0305F3D10468002310A2250708D507
:1007A00004F020040C4304D0C46901230CA2641E8D
:1007B000C46130BC00F06CB910B504462146106825
:1007C000FFF797FE02462046BDE810400023D1E720
:1007D000D21D22F00701D1E90023CBE70000000081
:1007E00030000000F0B40D460188090502D5214C07
:1007F0007C4402E01F4C7C440E34002100F12406AE
:1008000008E002F00F071209E75D42EA03721B09D4
:100810007754491C52EA0307F3D1027800231207E8
:1008200004D5702D06D009B1022311342246F0BC44
:1008300000F02EB901231034F8E770B504460D46D8
:1008400021461068FFF755FE024629462046BDE8BE
:1008500070400023C6E7D21D22F00703D3E900232E
:10086000C0E70368126843F0200303600823C361F4
:100870000023B7E7403600002DE9F05F89460446C3
:100880004FF0000ADFF874B1FB44C0F820A0204606
:10089000E1688847002874D0252806D0D4E90121D2
:1008A0009047206A401C2062F1E700265F46204600
:1008B000E16888472028054607DB312D05D27819E5
:1008C00010F8200C08B10643F1E7B00701D526F077
:1008D0000406C4F81CA00027C4F818A02A2D09D0CB
:1008E000284603F05DF838B304EB8708303DC8F8BC
:1008F000185019E059F8041B204604EB8702916157
:10090000E1688847012F054618D1E069002820DA00
:1009100026F020061DE0D8F8180000EB800005EB5B
:1009200040003038C8F818002046E168884705467E
:1009300003F036F80028EED1012F0AD02E2D08D171
:100940002046E16888477F1C0546022F46F02006B6
:10095000C4DBA069002803DA404246F00106A0612A
:10096000F00701D026F010066C2D0BD0682D09D0B1
:100970004C2D39D06A2D35D0742D35D07A2D33D009
:1009800016E038E0E1682F4620468847B842054621
:1009900009D16C2F26D04FF48060E16806432046D1
:1009A0008847054604E06C2F1AD04FF48070064348
:1009B0000DB3A5F14100192802D8203546F4006690
:1009C0004A462946204626604E46FFF72DFC80B158
:1009D00001280BD0F61D26F0070000F1080956E7A4
:1009E0004020E4E78020D8E70020D6E706F104099C
:1009F0004DE7284652E7206A00F002B8D0350000E3
:100A000030BCBDE8C09F30B5B0F10A0271F10003FF
:100A10004FEA900E4EEA817EB0EB0E0061EB910141
:100A20004FEA101E4EEA017E10EB0E0041EB111151
:100A30004FEA102E4EEA016E10EB0E0041EB112131
:100A40004FEA104E4EEA014E10EB0E0041EB114101
:100A5000401841F100014FEAD00040EA41704FEAEE
:100A6000D1014FEA810444EA907410EB800544EB15
:100A700001046D1944EB0404521BA3414FF0000321
:100A800048BF0A3200D530BD401C41F1000130BDE5
:100A90002DE9F0470D4699469246044600F1240898
:100AA0000168880604D5E06921F01001216000E0AA
:100AB0000120A84201DD471B00E00027A1697A1947
:100AC00002EB0900081AA0612078C00602D4204673
:100AD000FFF7DFFC002608E0D4E901211AF8060040
:100AE0009047206A401C761C20624E45F4DB20783B
:100AF000C0060AD52046FFF7CCFC06E0D4E9012168
:100B000030209047206A401C2062381EA7F1010760
:100B1000F4DC07E0D4E9012118F805009047206AC9
:100B2000401C2062281EA5F10105F3DC2046FFF7DA
:100B3000C6FC2078000602D50220BDE8F08701201F
:100B4000FBE72DE9FF4F0C461E464FF0FF378BB0F9
:100B5000D2E90001DDF860800A908A46C1F30A55A7
:100B600005B93D46002108464FF00000BAF1000FDC
:100B700000F4400005DA00EB80004FF4400101EA88
:100B800050004FEA9059B9F1010F00DDB9460A98BB
:100B900050EA4A000ED044F61050A5F2FF35454306
:100BA0002F14B8F1000F1ED07542291E1EDDC9F1A9
:100BB00000021CE0B8F1010F4FF0000001D030211D
:100BC00003E0F24305E02154401CB042FBDB304619
:100BD0000022002121540B99C1F80880C1E90020AE
:100BE0000FB000F0BCB9BD1B6D1CDEE74A4600DA51
:100BF000694206A800F0F8FB06AB93E8070003ABD8
:100C000083E8070050460A9902F0E9FA8DE80700E8
:100C1000A0F500501F3800900398002D0ADD42F225
:100C20001F014A460844002303A90390684602F0C6
:100C300053FD09E0A0F500504A461F38002303A9E0
:100C40000390684602F05DFD8DE807000004000C8B
:100C500003D04FF0FF30410800E01046B8F1000F1C
:100C600003D00022009215461EE0751E05D4FFF742
:100C7000CAFE303262556D1EF9D5B34601220843D3
:100C800002D000227F1C04E02078302801D100220D
:100C90007F1E002A099784D01DE0112D07DAFFF787
:100CA000B2FE303262556D1C50EA0102F5D10843A4
:100CB00002D00098C8B10EE00021681E05E0235C58
:100CC000625C63542254401E491C8142F7DBAB46F0
:100CD000A81B401E0990002004F80B000B98099AED
:100CE000C0F80880C0E9002B7AE711264FF0000811
:100CF00057E72DE9F04F88460446D21D22F0070140
:100D000091B0D1E90001CDE90A0102F031FE0246BD
:100D10000B98C00F01D02D2007E02068810701D576
:100D20002B2002E0202101EAC000032A099001D013
:100D3000072A05DB03464146204600F015FB0BE180
:100D40002078800601D5E06900E00620B8F1650F43
:100D5000814606D0B8F1660F18D0B8F1670F70D190
:100D600031E00020B9F1110F009001DB112301E007
:100D700009F101030AAA01A90CA8FFF7E2FEDDE9C7
:100D80000C70002609F10105834647E001204B461F
:100D900000904FF000470AAA01A90CA8FFF7D1FE66
:100DA000DDE90DB00C995D46002610B909F101008E
:100DB0000D18B9EB050003D4C0F1FF3609F10105A8
:100DC000A5EB09002BE0B9F1010F01DA4FF00109A1
:100DD0000020B9F1110F0090484601DD112300E019
:100DE00003460AAA01A90CA8FFF7ABFEDDE90C70C7
:100DF0004D4600268346207800070AD4AB4500DA2A
:100E00005D4601A8012D04DD411911F8011C3029AE
:100E100007D04F4502DA17F1040F04DA01208246A9
:100E20000FE06D1EEEE7002F02DCED1B3E4403E0F9
:100E3000781CA84200DD7D1CB81B00F1010A4FF0B0
:100E400000472078000703D4AA4501DB4FF0FF3AA2
:100E50000021B7F1004F0DF143088DF8431024D065
:100E600002202B23002F01DA7F422D230A21021EAC
:100E7000A0F1010000DC5FB197FBF1FC97FBF1F200
:100E800001FB1C7C17460CF1300C08F801CDEEE795
:100E9000A8F1010003702188090501D5452100E072
:100EA0006521A0F1010800F8011C09980FA9A1EB28
:100EB0000807FF1D00B10120411901EBEA70A1698B
:100EC0003844081A401EA0612078C00602D420468B
:100ED000FFF7DFFA099828B1D4E901219047206A89
:100EE000401C20622078C00622D52046FFF7D1FAA8
:100EF0001EE0002E04DBB34502DD01A8805D00E0AA
:100F00003020D4E901219047206A401C2062761CE1
:100F1000AAF101005FEA000A0AD100F021FAC068D4
:100F20000168405CD4E901219047206A401C20629E
:100F3000281EA5F10105DCDC07E0D4E9012118F841
:100F4000010B9047206A401C2062381EA7F1010760
:100F5000F3DC2046FFF7B3FA032011B041E630BCC2
:100F6000BDE8C08F2DE9F04F04460D46D21D22F09A
:100F7000070089B0D0E900974846394602F0F8FCEE
:100F80000246F80F01D02D2307E02068810701D524
:100F90002B2302E0202101EAC0038DF820300BB1A1
:100FA000012000E00020032A824601D0072A04DB4A
:100FB0002946204600F0D8F93FE12078800601D488
:100FC0000D2500E0E569C7F30A560D2D49DA002129
:100FD0004FEA175B08464FF00000002F00F4400076
:100FE00007DA00EB80004FF4400100EBD07001EA1B
:100FF00060008115012901DD4FF0FF3100224FEA29
:10100000850CBCF1180F06D31346ACF118004FF055
:101010008052C24003E04FF4801323FA0CF30CF12A
:101020000C0CBCF1200F04D3ACF1200C09FA0CF02D
:1010300001E007FA0CF000294FF0004801DD18B973
:101040000FE00ED140450CD319EB02095F4121B9E5
:10105000404502D19F4329EA0209BBEB175F00D04C
:10106000761C2088000502D57B48784402E07A4847
:101070007844193808AA302302F80A30037C0AF1B0
:101080000101002E0AF1020A53546A4602DC4FF0B5
:10109000300101E04FF031014FF001088DF80010F0
:1010A00002D0A6F2FF3603E059EA470100D06B4EAA
:1010B000002D02DC2178090704D54FF002082E210B
:1010C0008DF80110C44600210BE0C7F303433F0134
:1010D000C35C491C6D1E02F80830052908F101089F
:1010E00001DA002DF1DC00210CE000EB1973491C42
:1010F0001B786D1E082902F808304FEA091908F11B
:10110000010801DA002DF0DC21688B0602D516E01B
:10111000A8F10108E04505DD02EB080313F8013CE6
:10112000302BF5D0B8F1000F09DD02EB080313F8FE
:10113000013C2E2B03D1090701D4A8F10108002D91
:1011400005DD3E2102F808106D1E08F10108407C03
:10115000002E02F8080008F1010804DA2D2076427A
:1011600002F8080002E02B2002F808000A214FF4E0
:101170007A70864208F101080BDB96FBF0F33033FE
:1011800002F8083096FBF0F308F1010800FB136643
:1011900001E0642E0CDB642096FBF0F3303302F8A0
:1011A000083096FBF0F308F1010800FB136601E03C
:1011B0000A2E06DB96FBF1F0303002F8080008F149
:1011C000010896FBF1F001FB1060303002F80800D6
:1011D000A16908F1010808EB050202EB0A00081AF0
:1011E000A0612078C00602D42046FFF752F9216A98
:1011F00008AE01EB0A00206204E0D4E9012116F8F0
:10120000010B9047BAF1010AF7D22078C00602D547
:101210002046FFF73EF96E4609E016F8010B3E281E
:101220000FD0D4E901219047206A401C2062B8F118
:101230000108F2D22046FFF742F909B0032000F07E
:101240000FB8206A2844206203E0D4E9012130204D
:1012500090476D1EEBD3F8E7122E000002FCFFFF53
:1012600030BCBDE8C08F10B5436913B1AFF3008047
:1012700001E0FFF747F9012010BD127800F12401C9
:101280000A7000224A700122EDE711684FF0FF3228
:10129000E9E710B5436913B1AFF3008001E0FFF750
:1012A000C9F9012010BD128800F1240182840022B6
:1012B000C2840122EDE711684FF0FF32E9E72DE922
:1012C000F04116460C46054600F042F8036893F8D4
:1012D0000101012807D0FF2C12D8185D80B1012030
:1012E0002C70BDE8F081D3F807013246214603F2A5
:1012F0000713C7182846BC46BDE8F04100236047E5
:101300004FF0FF30EDE7754600F0EAF8AE46050015
:101310006946534620F00700854618B020B5FFF710
:1013200019F8BDE820404FF000064FF000074FF0DD
:1013300000084FF0000BAC46ACE8C009ACE8C009AF
:10134000ACE8C009ACE8C00921F007018D46704740
:1013500010B500F005F8001D10BD00BF812600008B
:1013600000487047300000202DE9F0411F46044638
:1013700003260168072A01F4006004DB08B116A502
:1013800005E016A503E008B115A500E015A521F0BC
:1013900010002060A069C01EA0610FB1401EA061B6
:1013A0002046FFF776F84FB1D4E90121384690473F
:1013B000206A401C2062C01C206206E0206AFAE716
:1013C000D4E9012115F8010B9047761EF8D220468A
:1013D000FFF775F8BDE8F0814E414E006E616E007A
:1013E000494E4600696E66002DE9F0478146164673
:1013F0008AB0354878440DC88DE80D0032487844ED
:10140000801C03AC0DC884E80D0041F69B300844F5
:10141000372190FBF1F290FBF1F5A5F1800501FB7E
:1014200012041B3C02D56442012000E00020DFF8DA
:1014300098A080460027FA44AAF1BE0A0EE0E00711
:101440000AD03246684607EB470101230AEB8101C7
:1014500002F057F98DE8070064107F1C002CEED1D4
:10146000194F7F44AE3F19E0E80715D007EB041091
:101470000DF1180A90E80E008AE80E00C068F042EC
:1014800001D1981908903246012306A903A802F059
:1014900038F903AB83E807006D10641C002DE3D11D
:1014A0004FF0010332466946B8F1000F03A802D09D
:1014B00002F012F901E002F024F9C9E90001C9F8CB
:1014C00008200AB0BDE8F087182B000010B50446CC
:1014D000AFF300802046BDE81040FEF70ABF0000D1
:1014E000004870471000002030B44FF0013C50F825
:1014F000042B51F8043BCCFA52F4D51A20D1FCB994
:1015000050F8042B51F8043BCCFA52F4D51A17D1F9
:10151000B4B950F8042B51F8043BCCFA52F4D51A64
:101520000ED16CB950F8042B51F8043BCCFA52F4AC
:10153000D51A05D1002CDAD030BC4FF0000070472E
:1015400029BAB1FA81F111F01801D1F120008440DB
:10155000F2D1CA40CB4012F0FF0213F0FF0330BCBF
:10156000D01A704701491820ABBEFEE726000200E2
:101570007047000080B50E2001F00AF90020C4F287
:10158000020000688004002819D5FFE70421C4F296
:101590000201086840F40050086040F27431C2F261
:1015A00000010120087040F28840C2F2000001688A
:1015B000086820F00100086001F04EFCFFE70421FC
:1015C000C4F20201086840F48050086080BD000049
:1015D00080B5112001F0DCF80020C4F202000068A0
:1015E0008001002819D5FFE70421C4F20201086830
:1015F00040F00070086040F27431C2F20001012036
:10160000087040F28840C2F200000168086820F0CB
:101610000100086001F020FCFFE70421C4F2020190
:10162000086840F08070086080BD000080B586B01A
:101630000590049141F24801C4F20201086840F0AB
:101640000100086000200390FFE70398B0F57A7F5F
:1016500005DAFFE7FFE7039801300390F5E7059906
:10166000086820F0010008600599086820F48040AF
:1016700008600599086820F44050086005990868DA
:1016800040F4005008600599086820F44070086034
:101690000599086820F4406008600599086820F002
:1016A000400008600599086840F0800008600599CE
:1016B000086820F0200008600599086840F01000D4
:1016C00008600599086820F004000860059908681A
:1016D00020F0080008600599086840F002000860E2
:1016E00005984421C4F20201884213D1FFE7A821E2
:1016F000C4F20201086840F4005008600E20029015
:10170000012101F0C7F8029801F072F8029801F087
:1017100027F81AE005988021C4F20201884213D10B
:10172000FFE7A821C4F20201086840F000700860D9
:1017300011200190012101F0ADF8019801F058F855
:10174000019801F00DF8FFE7FFE706B080BD00004B
:1017500080B541F24C01C4F20201086840F0020079
:10176000086040F2084EC4F6000EDEF8000020F4D7
:101770004030CEF80000DEF8000040F44030CEF8F3
:10178000000040F2044CC4F6000CDCF8000040F409
:101790008070CCF8000040F20C43C4F600031868D7
:1017A00020F440301860186840F48030186040F22F
:1017B0000042C4F60002106820F48030106040F24D
:1017C0002441C4F60001086820F00F000860086892
:1017D00040F004000860DEF8000020F44020CEF85D
:1017E0000000DEF8000040F44020CEF80000DCF8F5
:1017F000000040F40070CCF80000186820F440208D
:101800001860186840F480201860106820F4802068
:101810001060086820F0F0000860086840F04000A0
:10182000086080BD81B05220009041F25801C4F29E
:101830000201086840F40010086041F28801C4F217
:101840000201086820F440500860086840F48050A5
:10185000086041F23801C4F20201086840F4001047
:101860000860086820F40010086045F20041C4F2E6
:101870000001086820F001000860086820F480502A
:101880000860086820F470600860086840F0800014
:101890000860086820F40030086045F20442C4F291
:1018A0000002106820F400601060106840F00070C2
:1018B0001060106840F40040106045F21042C4F21D
:1018C0000002106800F070601060106842F22E7321
:1018D000C7F29C031843106045F20842C4F20002AC
:1018E000106820F40040106045F20C43C4F200037D
:1018F000186820F400401860106820F480601060C0
:10190000106820F0FE001060106840F0A400106025
:10191000106840F400401060086840F00100086062
:1019200001B0704780B586B004908DF80F10029218
:101930008DF807309DF80700012803DBFFE70298C8
:1019400020B9FFE7FF208DF8170034E0049800F07D
:10195000EDF804989DF80F109DF80720012300F082
:101960009DF800200090FFE700989DF8071088423E
:1019700012DAFFE7FFE7049880694007002801D4E6
:10198000FFE7F8E70498406A0299009A8854FFE755
:10199000009801300090E7E7FFE70498806940066F
:1019A000002801D4FFE7F8E7049800F0ADF8002024
:1019B0008DF81700FFE79DF9170006B080BD000005
:1019C00080B588B006908DF8171004928DF80F300E
:1019D0009DF80F00012803DBFFE7049820B9FFE71B
:1019E000FF208DF81F0055E0069800F09FF806983C
:1019F0009DF817109DF80F20002300F04FF8B0F16C
:101A0000FF3F04DCFFE7FF208DF81F0042E00020CD
:101A10000290FFE702989DF80F10884212DAFFE764
:101A2000FFE7069880698007002801D4FFE7F8E700
:101A300004980299405C06998862FFE70298013099
:101A40000290E7E7FFE70698816900204906002930
:101A5000019009D4FFE70698806900F01001012089
:101A600080EA11100190FFE70198C00708B1FFE775
:101A7000E9E706988069C006002804D5FFE7FF2043
:101A80008DF81F0006E0069800F03EF800208DF863
:101A90001F00FFE79DF91F0008B080BD84B00390D0
:101AA00002918DF807208DF80630002000900398F1
:101AB00040680090009849F60001CFF600410840C8
:101AC00000909DF80600012805D1FFE7009840F43A
:101AD0008060009004E0009820F480600090FFE7B0
:101AE00002986FF39F209DF8071040EA014100988B
:101AF00008430090009840F400500090009803992B
:101B00004860002004B0704781B000900099486898
:101B100040F480404860FFE7009880698006002814
:101B200001D4FFE7F8E701B07047000081B00090F2
:101B3000FFE7009880690004002801D5FFE7F8E777
:101B400001B0704741F24C01C4F20201086840F054
:101B5000010008604FF09041086820F400600860C0
:101B60000421C4F60001086820F0200008600C2160
:101B7000C4F60001086820F4406008607047000067
:101B80001421C4F60001086880F020000860704746
:101B900041F24C01C4F20201086840F00400086000
:101BA00040F6000CC4F6000CDCF8000020F40060E5
:101BB000CCF8000040F60803C4F60003186840F4AF
:101BC0000060186040F60402C4F60002106820F0BD
:101BD0002000106040F60C01C4F60001086820F4F3
:101BE00040600860DCF8000020F40050CCF80000F1
:101BF000186840F400501860106820F04000106031
:101C0000086820F440500860DCF8000020F4003040
:101C1000CCF80000186840F400301860106820F418
:101C200080701060086820F440300860DCF8000024
:101C300020F40020CCF80000186840F40020186060
:101C4000106820F400701060086820F440200860DC
:101C500040F28441C2F20001002008707047000089
:101C600041F24C01C4F20201086840F00100086032
:101C7000086840F0020008604FF09041086820F4C6
:101C800040700860086840F40070086040F200414D
:101C9000C4F60001086820F440700860086840F449
:101CA00000700860086820F0C0000860086840F014
:101CB00080000860086820F440600860086840F40C
:101CC000006008602021C4F60001086820F40020AC
:101CD0000860086840F480200860086820F400303C
:101CE0000860086840F48030086040F22041C4F683
:101CF0000001086820F400200860086840F4802093
:101D00000860086820F400300860086840F48030FB
:101D10000860086820F400400860086840F48040CB
:101D20000860086820F400500860086840F480509B
:101D30000860086820F400000860086840F480002B
:101D40000860086820F400100860086840F48010FB
:101D5000086040F20841C4F60001086820F44060C1
:101D60000860086840F440600860086820F440702B
:101D70000860086840F440700860086820F0C000FF
:101D80000860086840F0C00008600821C4F600013F
:101D9000086820F440700860086840F440700860EB
:101DA0000421C4F60001086820F01000086040F229
:101DB0000441C4F60001086820F0200008600868AB
:101DC00020F008000860086820F0100008600C216E
:101DD000C4F60001086820F44070086040F20C412D
:101DE000C4F60001086820F440700860086820F01C
:101DF000C0000860086820F4406008607047000078
:101E000041F26001C4F20201086840F480500860A9
:101E100041F24001C4F20201086840F480500860B9
:101E2000086820F48050086043F20001C4F2010108
:101E3000086820F040000860086820F480600860AE
:101E4000086820F400400860086820F480400860BA
:101E5000086820F08000086043F20402C4F2010226
:101E6000106840F470601060106820F0100010607E
:101E7000086840F002000860086840F0010008604F
:101E8000086820F038000860086840F00800086022
:101E9000086840F010000860086820F400500860EE
:101EA000086840F004000860086820F400700860CA
:101EB000106840F008001060106840F004001060E6
:101EC000106820F480501060086840F040000860FE
:101ED0007047000081B0ADF80200FFE743F2080050
:101EE000C4F20100006800F00200022801D0FFE700
:101EF000F4E7BDF8020043F20C01C4F201010860EE
:101F0000FFE743F20800C4F2010000680006002861
:101F100001D5FFE7F5E7FFE743F20800C4F201004F
:101F20000068C00708B9FFE7F6E743F20C00C4F207
:101F300001000068ADF80000BDF8000001B0704776
:101F400080B540F28041C2F20001086801300860AB
:101F500001F068F880BD000080B582B04EF210013B
:101F6000CEF20001002008604EF21403CEF200030E
:101F700043F67F02C0F201021A604EF21802CEF25E
:101F800000021060086840F002000860086840F035
:101F900001000860086840F0040008604FF0FF305E
:101FA000019000F00DFC0198012100F051FC02B0FD
:101FB00080BD000083B042F20001C4F20201086853
:101FC00020F007000860086840F00200086041F255
:101FD0000001C4F20201086840F480700860FFE765
:101FE00041F20000C4F2020000684005002801D45C
:101FF000FFE7F5E71020029041F20401C4F202016C
:10200000086820F0F8500860029A086840EA026008
:10201000086041F20001C4F20201086820F08070FB
:102020000860FFE741F20000C4F20200006880018E
:10203000002801D5FFE7F5E741F20C01C4F20201E7
:102040000191086820F003000860086840F0020071
:1020500008600868142262F30E20086008680122F4
:1020600062F306100860086820F0C0600860086825
:1020700040F08070086041F20001C4F2020108687B
:1020800040F080700860FFE741F20000C4F20200F7
:1020900000688001002801D4FFE7F5E741F208015C
:1020A000C4F20201086820F003000860086840F0EC
:1020B00003000860FFE741F20800C4F20200006874
:1020C00000F00C000C2801D0FFE7F4E741F2080112
:1020D000C4F20201086820F0F0000860086820F4EB
:1020E000E0600860086820F46050086041F2000178
:1020F000C4F20201086820F080600860FFE741F246
:102100000000C4F2020000684001002801D5FFE78A
:10211000F5E741F21001C4F202010091086820F4D1
:10212000FE400860086840F4C0500860086840F449
:1021300000300860086840F48030086041F2000117
:10214000C4F20201086840F080600860FFE741F2D5
:102150000000C4F2020000684001002801D4FFE73B
:10216000F5E741F28801C4F20201086820F440005A
:10217000086041F26001C4F20201086840F40010F6
:10218000086003B07047000080B541F24C01C4F212
:102190000201086840F00200086040F2084EC4F6F0
:1021A000000EDEF8000020F44050CEF80000DEF80B
:1021B000000040F44050CEF8000040F2044CC4F659
:1021C000000CDCF8000020F04000CCF8000040F2E9
:1021D0000C43C4F60003186820F4405018601868D7
:1021E00040F48050186040F20042C4F600021068CB
:1021F00020F48050106040F22041C4F600010868CD
:1022000020F070600860086840F0E0600860DEF868
:10221000000020F44040CEF80000DEF8000040F45A
:102220004040CEF80000DCF8000020F08000CCF840
:102230000000186820F440401860186840F480409E
:102240001860106820F480401060086820F070402A
:102250000860086840F0E040086080BD41F260011D
:10226000C4F20201086840F48040086041F288012D
:10227000C4F20201086820F003000860086840F01A
:10228000010008607047000080B541F24C01C4F2C3
:102290000201086840F00100086040F2080EC4F630
:1022A000000EDEF8000020F03000CEF80000DEF86E
:1022B000000040F03000CEF8000040F2040CC4F6FC
:1022C000000CDCF8000020F00400CCF800000C2327
:1022D000C4F60003186820F030001860186840F059
:1022E000100018604FF09042106820F0100010604D
:1022F0002021C4F60001086820F4706008600868B6
:1023000040F4E0600860DEF8000020F0C000CEF885
:102310000000DEF8000040F0C000CEF80000DCF85D
:10232000000020F00800CCF80000186820F0C00081
:102330001860186840F040001860106820F04000F5
:102340001060086820F470400860086840F4E040BD
:10235000086080BD41F25801C4F20201086840F4EF
:102360000030086041F28801C4F20201086820F0E0
:102370000C000860086840F0040008607047000026
:1023800080B586B00590049140F27C41C2F2000114
:1023900001200870059844F20D01C0F600010522E5
:1023A000FEF729F8E8B9FFE7002000F09BFE40F2B5
:1023B0007300C2F20000039043F6E171C0F6000121
:1023C000FDF7E4FF039800F051F840F20401C2F277
:1023D00000010120087040F27631C2F2000108705D
:1023E00041E0059844F26801C0F600010622FEF7BC
:1023F00002F8F8B9FFE70120029000F073FE40F206
:102400007300C2F20000019043F6F771C0F60001BC
:10241000FDF7BCFF019800F029F8029840F2040291
:10242000C2F200020021117040F27631C2F20001C6
:10243000087017E0022000F055FE40F27300C2F26F
:102440000000009044F24801C0F60001FDF79EFF35
:10245000009800F00BF840F27631C2F20001002043
:102460000870FFE7FFE706B080BD000080B584B0CC
:10247000039040F28840C2F2000000680068C00784
:1024800000284DD1FFE70398FDF796FF40F2773122
:10249000C2F200010191087040F20000C2F2000097
:1024A00000680399FDF772FF0198017840F28840B7
:1024B000C2F200000268516040F27432C2F20002BF
:1024C000002111700168086840F001000860FFE712
:1024D00040F27430C2F20000007808B9FFE7F7E775
:1024E00000200290FFE7029840F27731C2F200012B
:1024F000097888420DDAFFE740F20000C2F20000DE
:102500000168029A00208854FFE702980130029087
:10251000E9E740F27731C2F200010020087010E0D4
:1025200040F20800C2F2000000680399FDF72EFF98
:102530000398FDF741FF40F27D41C2F200010870AF
:10254000FFE704B080BD000080B582B040F2884152
:10255000C2F200014420C4F202000860252000F00D
:1025600017F943F61C00C4F2010000688006002839
:1025700014D5FFE743F61801C4F20101088840F0C2
:102580000800088043F62400C4F2010000888DF89A
:1025900007009DF8070000F0DFFDFFE743F61C0091
:1025A000C4F201000068400600280BD5FFE743F69F
:1025B0002001C4F20101086840F04000086000F00A
:1025C0004BFCFFE702B080BD80B582B040F288418D
:1025D000C2F200018020C4F202000860262000F050
:1025E000D7F844F21C40C4F20000006880060028BE
:1025F00014D5FFE744F21841C4F20001088840F006
:102600000800088044F22440C4F2000000888DF8DD
:1026100007009DF8070000F09FFDFFE744F21C4013
:10262000C4F200000068400600280BD5FFE744F222
:102630002041C4F20001086840F04000086000F04A
:102640000BFCFFE702B080BD80B584B00390039916
:10265000086820F001000860039843F60001C4F206
:102660000101884215D1FFE7FFF7F8FDFFF78CFD68
:1026700040F28841C2F200014420C4F20200086026
:1026800025200290022100F027F9029800F0C8F8F6
:102690001DE0039844F20041C4F20001884215D1C4
:1026A000FFE7FFF757FEFFF7EFFD40F28841C2F268
:1026B00000018020C4F2020008602620019002215F
:1026C00000F00AF9019800F0ABF8FFE7FFE740F2ED
:1026D0008840C2F20000009000680399FEF7A6FF50
:1026E000009940F20000C2F2000000680A68D06061
:1026F00003982830096888600399086820F0102042
:1027000008600399086820F400400860039948684D
:1027100020F440504860039942F28D00C86003994C
:10272000086840F0040008600399086840F0080059
:1027300008600399886840F0800088600399886881
:1027400040F4805088600399086840F020000860D9
:102750000399086840F00100086004B080BD0000E3
:1027600081B08DF803009DF9030000280ED4FFE727
:102770009DF9031001F01F02012090404A094EF21A
:102780008021CEF2000141F82200FFE701B070473E
:1027900081B08DF803009DF9030000280ED4FFE7F7
:1027A0009DF9031001F01F02012090404A094EF2EA
:1027B0008021CEF2000141F82200FFE701B070470E
:1027C00081B08DF803009DF9030000280ED4FFE7C7
:1027D0009DF9031001F01F02012090404A094EF2BA
:1027E0000011CEF2000141F82200FFE701B070476E
:1027F00081B08DF803009DF9030000280ED4FFE797
:102800009DF9031001F01F02012090404A094EF289
:102810000011CEF2000141F82200FFE701B070473D
:1028200081B08DF803009DF9030000280ED4FFE766
:102830009DF9031001F01F02012090404A094EF259
:102840000011CEF2000141F82200FFE701B070470D
:1028500082B08DF8070000919DF9070000280AD486
:10286000FFE7009800019DF907104EF20042CEF2FA
:10287000000288540BE0009800019DF8071001F059
:102880000F014EF61452CEF200028854FFE702B058
:102890007047000082B08DF8070000919DF9070095
:1028A00000280AD4FFE7009800019DF907104EF2B6
:1028B0000042CEF2000288540BE0009800019DF81F
:1028C000071001F00F014EF61452CEF200028854A8
:1028D000FFE702B07047000082B08DF8070000915A
:1028E0009DF9070000280AD4FFE7009800019DF930
:1028F00007104EF20042CEF2000288540BE000981E
:1029000000019DF8071001F00F014EF61452CEF2AF
:1029100000028854FFE702B07047000080B582B023
:102920008DF807009DF8070000F03F00000200F559
:102930000040ADF80400BDF80400FFF7CBFA8DF8B5
:1029400003009DF8030002B080BD000080B582B096
:102950008DF807008DF806109DF8070000F03F0184
:102960009DF8060040EA0120ADF80400BDF804001F
:10297000FFF7B0FA02B080BD82B0019040F2804013
:10298000C2F2000000680090FFE7019840F2804129
:10299000C2F200010968009A891A884201D9FFE74A
:1029A000F3E702B07047000080B582B02C200A2106
:1029B000FFF7CCFF312008210191FFF7C7FF0199F4
:1029C0002D20FFF7C3FF02B080BD00000000000013
:1029D00080B596B000201590FFF7ECFAFFF7D8F815
:1029E000FFF7BAFAFFF7AEF844F20040C4F2000075
:1029F000FFF72AFEFFF734F9FFF702FAFFF7D4FFDB
:102A0000FEF7A6FEFEF70EFFFFE7FFF7B9F800F0AE
:102A100075FB12A810A90EAA00F080FA9DED120B0A
:102A20009DED101B9DED0E2B40F27000C2F20000D8
:102A300001786846016180ED022B80ED001B53ECAC
:102A4000102B40F27300C2F200000D9044F210010E
:102A5000C0F60001FDF79AFC0D98FFF707FD0E98F0
:102A60000F999FEDC10B53EC102B01F0BFF998BBF0
:102A7000FFE740F27630C2F20000007801282BD147
:102A8000FFE740F20400C2F200000078012823D1E1
:102A9000FFE7022000F026FB40F27631C2F200018F
:102AA0000020087040F27532C2F20002012111705C
:102AB00040F20401C2F20001087040F27300C2F259
:102AC00000000C9043F64871C0F60001FDF75EFC73
:102AD0000C98FFF7CBFC3CE00E980F999FEDA40BF0
:102AE00053EC102B01F07BF990BBFFE740F27630FE
:102AF000C2F20000007801282AD1FFE740F204006A
:102B0000C2F20000007818BBFFE7022000F0EAFAEA
:102B100040F27631C2F200010020087040F27531B7
:102B2000C2F20001087040F20401C2F2000101206B
:102B3000087040F27300C2F200000B9043F6577128
:102B4000C0F60001FDF722FC0B98FFF78FFCFFE7B2
:102B5000FFE740F27C40C2F200000078D0B1FFE70E
:102B600040F27630C2F20000007898B9FFE740F2F8
:102B70007C40C2F200000178013101700078042825
:102B800007DBFFE740F27C41C2F200010020087041
:102B9000FFE787E040F27840C2F2000000681828A2
:102BA0003CDCFFE740F27530C2F2000000780128FB
:102BB00034D1FFE740F27630C2F20000007868BB03
:102BC000FFE740F27C40C2F20000007830BBFFE734
:102BD00040F20400C2F200000078F8B9FFE740F2CA
:102BE0007300C2F20000099043F6B671C0F600010E
:102BF000FDF7CCFB0998FFF739FC01200A9000F0A3
:102C000071FA0A9840F27631C2F20001087040F27F
:102C10000401C2F200010020087042E040F2784056
:102C2000C2F20000006817283ADBFFE740F2753077
:102C3000C2F20000007898BBFFE740F27630C2F2A3
:102C40000000007860BBFFE740F27C40C2F2000069
:102C5000007828BBFFE740F20400C2F200000078D1
:102C600001281DD1FFE740F27300C2F20000089076
:102C700043F68A71C0F60001FDF788FB0898FFF75C
:102C8000F5FB002000F02EFA40F27631C2F200018E
:102C90000120087040F20401C2F200010870FFE751
:102CA000FFE7FFE74FF47A70FFF766FE12A810A95E
:102CB0000EAA00F033F90E980F999FED630B53ECB9
:102CC000102B01F093F898BBFFE740F27630C2F288
:102CD0000000007801282BD1FFE740F20400C2F287
:102CE00000000078012823D1FFE7022000F0FAF964
:102CF00040F27631C2F200010020087040F27531D6
:102D0000C2F200010120087040F20401C2F2000189
:102D1000087040F27300C2F20000079043F666713B
:102D2000C0F60001FDF732FB0798FFF79FFB47E075
:102D30000E980F999FED460B53EC102B01F04FF8B6
:102D4000E8BBFFE740F27630C2F2000000780128CD
:102D500035D1FFE740F20400C2F20000007870BBFA
:102D60000AE000BF00BF00BF666666666666EE3FAB
:102D70000AD7A3703D0AB73F022000F0B3F940F232
:102D80007631C2F200010020087040F27531C2F2C3
:102D90000001087040F20401C2F200010120087035
:102DA00040F27300C2F20000069043F67871C0F65C
:102DB0000001FDF7EBFA0698FFF758FBFFE7FFE786
:102DC0000E980F999FED220B53EC102B01F007F892
:102DD000A0B9FFE740F27630C2F20000007868B98F
:102DE000FFE740F27531C2F200010020087040F2A6
:102DF0000401C2F20001012008701EE00E980F9934
:102E00009FED110B53EC102B00F0F0FFA0B9FFE782
:102E100040F27630C2F20000007868B9FFE740F275
:102E20007531C2F200010120087040F20401C2F2C3
:102E3000000100200870FFE7FFE74FF4FA70FFF78A
:102E40009BFDE2E500BF00BF666666666666EE3F14
:102E50000AD7A3703D0AB73F82B040F27D40C2F26C
:102E600000000078002856D0FFE740F20002C2F2CE
:102E700000021068019040F20801C2F200010868E7
:102E800010600198086040F27D40C2F200000178B5
:102E900040F28840C2F200000268516040F2743291
:102EA000C2F20002002111700168086840F00100C0
:102EB0000860FFE740F27430C2F20000007808B901
:102EC000FFE7F7E740F28840C2F2000001680868B7
:102ED00020F00100086000200090FFE7009840F219
:102EE0007D41C2F20001097888420DDAFFE740F225
:102EF0000800C2F200000168009A00208854FFE731
:102F0000009801300090E9E740F27D41C2F20001F3
:102F100000200870FFE702B07047000080B58EB057
:102F20000D900C910B923220FFF7F8FC8DF82B00DE
:102F30003320FFF7F3FC8DF82A003420FFF7EEFC76
:102F40008DF829003520FFF7E9FC8DF828003620A0
:102F5000FFF7E4FC8DF827003720FFF7DFFC8DF842
:102F600026009DF82A109DF82B0040EA012000B2AF
:102F700000F092FD41EC100B8DED060B9DF8281032
:102F80009DF8290040EA012000B200F085FD41ECE7
:102F9000100B8DED040B9DF826109DF8270040EADC
:102FA000012000B200F078FD41EC100B8DED020B1A
:102FB0004FF2E420C3F66F70019047F2DE10C8F6BE
:102FC0008A6000909DED061B9DED000B51EC110BEE
:102FD00053EC102B00F0F0FD41EC100B0D9880ED40
:102FE000000B9DED041B9DED000B51EC110B53EC00
:102FF000102B00F0E1FD41EC100B0C9880ED000B64
:103000009DED021B9DED000B51EC110B53EC102BB1
:1030100000F0D2FD41EC100B0B9880ED000B0EB0D0
:1030200080BD000040F61401C4F60001086820F4D9
:103030005870086040F28440C2F20000027843F603
:103040002870C0F6000050F822200868104308607D
:1030500040F27330C2F2000090F9000098B9FFE727
:1030600040F28440C2F20000017801310170007822
:10307000082807DBFFE740F28441C2F2000100208C
:103080000870FFE72DE040F27330C2F2000090F9C3
:103090000000012817D1FFE740F28440C2F200008F
:1030A000007838B9FFE740F28441C2F200010720FE
:1030B000087007E040F28441C2F20001087801384C
:1030C0000870FFE70CE040F27330C2F2000090F9A4
:1030D0000000022803D1FFE7FFE7FFE7FFE7FFE774
:1030E000FFE7704781B08DF803009DF8030040F2C0
:1030F0007331C2F20001087001B0704780B584B02E
:1031000040F27200C2F2000000909021017040F283
:103110007102C2F2000200211170017845F20040F4
:10312000C4F20000029001230193FEF749FC0099CC
:10313000019B0298097840F27002C2F200020392E9
:10314000FEF7F0FB0398007840F27841C2F20001EC
:10315000086004B080BD000080B582B08DF8070023
:103160009DF8070040F27733C2F200031A78511C31
:10317000197040F27831C2F2000188549DF80700BE
:103180000A282AD1FFE740F27730C2F20000017826
:1031900040F27830C2F20000FFF7F2F80020009011
:1031A000FFE7009840F27731C2F2000109788842C7
:1031B0000CDAFFE7009A40F27831C2F200010020F9
:1031C0008854FFE7009801300090EAE740F2773139
:1031D000C2F2000100200870FFE702B080BD5FEA84
:1031E000400C08BF91F0000F4FEA8C234FEAC12238
:1031F00043EA51514FEA1C5018BF00F5F0404FEA26
:10320000300018BF41F000415FEA6C5C00F029809B
:10321000BCF1FF3F08BF40F080407047130C06BF71
:1032200012044FF0100C4FF0000C130E04BF1202EA
:103230000CF1080C130F04BF12010CF1040C930FD6
:1032400004BF92000CF1020CD30F04BF52000CF12A
:10325000010C11464FF00002A0F11F00A0EB0C0082
:10326000704711F0004F08BF704731F000413FF444
:10327000D5AF0B0C06BF09044FF0100C4FF0000C3B
:103280000B0E04BF09020CF1080C0B0F04BF09015F
:103290000CF1040C8B0F04BF89000CF1020CCB0F56
:1032A00004BF49000CF1010CCCF1200322FA03F316
:1032B00041EA030102FA0CF2A0EB0C0000F101005C
:1032C0007047000023F07F4720F07F4C80EA030026
:1032D00000F00040ACEB070303F57C5303F1FF0360
:1032E0002DE9804909B44FEA144324EA03484FEA20
:1032F000154B25EA0B4E0FF2042606EB13273E78FA
:1033000003FB0667C7F5000707FB06F64FEAD6463C
:1033100006F102064FEA543707FB066CCCF1005C5D
:103320004FEA1C472CEA074C0CFB06F507FB06F49A
:1033300004EB15464FEA961649085FEA320234BF9D
:1033400000204FF000404FEAD13706FB07FC4FEA60
:103350001C4C0CFB0BF7D21B03FB0CF761EB0701BA
:103360000CFB0EF7B0EB074072EB17420CFB08F7B3
:1033700034BFA2EB0742B2EB074261EB17414FEAC1
:103380000C444FEA910706FB07FC4FEA1C4C0CFB70
:103390000BF7B0EBC74072EB573203FB0CF734BFAF
:1033A000A2EBC742B2EBC74261EB57310CFB0EF701
:1033B000B0EBC70072EB57720CFB08F734BFA2EBFF
:1033C000C702B2EBC70261EB57714FEA816141EA74
:1033D00092114FEA826242EA90124FEA806004EB57
:1033E000CC04039F4FEAD13706FB07FC4FEA1C4C85
:1033F0000CFB0BF7D21B03FB0CF761EB07010CFB7B
:103400000EF7B0EB074072EB17420CFB08F734BF26
:10341000A2EB0742B2EB074261EB17414FEA8C5532
:1034200004EB9C244FEA910706FB07FC4FEA1C4C77
:103430000CFB0BF7B0EBC74072EB573203FB0CF7FA
:1034400034BFA2EBC742B2EBC74261EB57310CFB72
:103450000EF7B0EBC70072EB57720CFB08F734BFE6
:10346000A2EBC702B2EBC70261EB57714FEA816171
:1034700041EA92114FEA826242EA90124FEA80607A
:1034800015EB4C2544F100044FEAD13706FB07FC4D
:103490004FEA1C4C0CFB0BF7D21B03FB0CF761EB48
:1034A00007010CFB0EF7B0EB074072EB17420CFB69
:1034B00008F734BFA2EB0742B2EB074261EB1741BA
:1034C0004FEA813141EA92414FEA823242EA904228
:1034D0004FEA80304FEA0C7615EB1C1544F10004DE
:1034E00048EA03434EEA0B484FF0000EB2EB080CDB
:1034F00071EB030724BF624639464EEB0E0E4FF0C8
:10350000000B0018524149414BEB0B0BB2EB080C7E
:1035100071EB03077BF1000B24BF624639464EEB8B
:103520000E0E4FF0000B0018524149414BEB0B0BB4
:10353000B2EB080C71EB03077BF1000B24BF624672
:1035400039464EEB0E0E51EA020718BF46F001064F
:1035500016EB0E7655F1000254F1000103D5BDE8DB
:103560008901BDE80088BDE88901BDE80048B619B9
:10357000524141EB0101A3F10103704780807F7E3E
:103580007D7C7B7A797877767675747372717170D9
:103590006F6E6E6D6C6C6B6A6A696868676666658B
:1035A0006464636362616160605F5F5E5E5D5D5C19
:1035B0005C5B5B5A5A59595858575756565555558A
:1035C0005454535352525251515050504F4F4F4EEA
:1035D0004E4D4D4D4C4C4C4B4B4B4A4A4A49494938
:1035E000484848474747474646464545454444447A
:1035F0004443434343424242424141419C46002BA3
:1036000030D477002BD04FEA37071CB503B44FF006
:1036100010004FF01001BAF1000F06D0BCF1000FFE
:10362000DCBF40F0080040F008014FF000000FBC84
:10363000BDE810400BF1010BBBF1010F08BF5FEAC1
:10364000170722BF12F1010211F101014FF00041F1
:1036500043F1000300F0004043EA00007047F9D353
:103660005708D0E746EA06464FEA164613F1400FE0
:103670001FDD13F1200FDFBF16430A460021203360
:103680005B42BED0C3F1200746EA06464FEA164623
:1036900002FA07F746EA070622FA03F2C3F1200707
:1036A00001FA07F742EA070221FA03F14FF000039B
:1036B000A7E746EA020646EA06464FEA164646EA03
:1036C0000106BCBF46EA0646360C4FF000034FF039
:1036D00000024FF0000194E72DE9804C70B49A4647
:1036E000934691E8380007C831EA400C48BF34EAF5
:1036F000430C03D5FFF7E6FDFFF780FFF0BCBDE804
:10370000008C2DE9804C70B49A46934691E83800BD
:1037100007C810F0804F08BF13F0804F03D100F0AE
:1037200005F8FFF76BFFF0BCBDE8008C20F07F4789
:1037300023F07F4C80EA030000F0004007EB0C030D
:10374000A3F57C53A3F1FE0392F0000F00F0B380C9
:1037500095F0000F00F077802DE901494FEA114004
:1037600021EA00484FEA144624EA064700FB06FC1B
:1037700008FB06F607FB08F818EB06484CEB164C5E
:1037800000FB07F718EB07484CEB17404FEA124BCA
:1037900022EA0B4E4FEA154625EA06470BFB06FCCC
:1037A0000EFB06F607FB0EFE1EEB064E4CEB164C10
:1037B0000BFB07F71EEB074E4CEB174B18EB0B08F8
:1037C00040F1000018EB0E0B58EB000840F1000030
:1037D0008F1A4FF000014FF000063CBFC943661B33
:1037E00014BFB5EB040C00213CBFC943F61B4FEAE4
:1037F000174427EA04454FEA1C472CEA074C04FB10
:10380000076205FB07F70CFB05F616EB074642EBD4
:10381000174204FB0CFC16EB0C4642EB1C421BEB64
:10382000060658EB020241414EEA8E0E46EA9E061B
:1038300001D5BDE80189B619524141EB0101A3F15F
:103840000103BDE801894FEA144524EA05464FEA21
:10385000114721EA074C05FB07F406FB07F70CFBB1
:1038600006F111EB074144EB174405FB0CFC11EB8F
:103870000C4144EB1C444FEA124722EA074C05FB7B
:1038800007F206FB07F70CFB06F616EB074642EBC2
:10389000174205FB0CFC16EB0C4642EB1C456A1864
:1038A00054F1000148BF7047B619524141EB010184
:1038B000A3F10103704795F0000F37D04FEA114292
:1038C00021EA02464FEA144724EA074C02FB07F1BB
:1038D00006FB07F70CFB06F414EB074441EB17411A
:1038E00002FB0CFC14EB0C4441EB1C414FEA154766
:1038F00025EA074C02FB07F506FB07F70CFB06F66B
:1039000016EB074645EB174502FB0CFC16EB0C4685
:1039100045EB1C42121951F1000148BF7047B6191E
:10392000524141EB0101A3F1010370474FEA1445F5
:1039300024EA05464FEA114721EA074C05FB07F147
:1039400006FB07F70CFB06F212EB074241EB1741AF
:1039500005FB0CFC12EB0C4251EB1C414FF0000636
:1039600048BF7047921841EB0101A3F10103704772
:1039700003B401984100009850EAC12018BF042008
:103980004A0D18BF40F0010040F2FF72B2EB515FE8
:1039900008BF40F00200012808BF052002B07047B0
:1039A00030380A2801D201207047002070470000FB
:1039B00010B500290AD00878002807D005487844B7
:1039C000FDF792FD002801D0002010BD0248784488
:1039D00010BD0000D2060000CA06000010B5002984
:1039E0000AD00878002807D005487844FDF77CFD08
:1039F000002801D0002010BD0248784410BD00000E
:103A0000C2060000BA060000491058BFC1F140418B
:103A10005B1058BFC3F140438B42EFF30080704707
:103A200051EA030C17D41CF5801F58BFBCF5801F4A
:103A300000F10680994218BF704708BF9042704756
:103A400007D711F5801F58BF13F5801F19D499426D
:103A50007047894270471CF5801F08D5BCF5801F50
:103A6000F7D58B4218BF704708BF824270474FF4AA
:103A7000001C1CEB410F38BF1CEB430F01D28B42E3
:103A8000704770B500F042F9922449004FF00051A0
:103A90004FF08053FFF7B8BF10F0004248BF4042DC
:103AA000B0FA80F310FA03F10AD0C3F11D0303F555
:103AB000806302EB03524FEA415002EBD121704781
:103AC0004FF000007047000051EA030C17D41CF5BA
:103AD000801F58BFBCF5801F00F10680994218BFB7
:103AE000704708BF9042704707D711F5801F58BF35
:103AF00013F5801F19D499427047894270471CF50D
:103B0000801F08D5BCF5801FF7D58B4218BF7047C2
:103B100008BF824270474FF4001C1CEB410F38BFB6
:103B20001CEB430F01D28B42704770B500F0EEF8EA
:103B3000922449004FF080514FF00053FFF764BFCB
:103B400051EA030C17D41CF5801F58BFBCF5801F29
:103B500000F10680994218BF704708BF9042704735
:103B600007D711F5801F58BF13F5801F19D499424C
:103B70007047894270471CF5801F08D5BCF5801F2F
:103B8000F7D58B4218BF704708BF824270474FF489
:103B9000001C1CEB410F38BF1CEB430F01D28B42C2
:103BA000704770B500F0B2F8922449004FF0005110
:103BB0004FF08053FFF728BF70B5DFF848C11CEA0B
:103BC000111E1EBF1CEA13159EEA0C0F95EA0C0F7E
:103BD00000F06F8081EA03044EEAD47EAE4421EA0D
:103BE0004C1123EA4C1341F4801143F48013AEF1DD
:103BF0007F7EA1FB024CA0FB0365361955EB0C053B
:103C0000A1FB034C4CF10003A0FB021C16EB0C06BD
:103C1000654153F10003094218BF46F0010613F451
:103C2000007F0BD14FEA03314FEA053041EA1551CD
:103C300040EA165034036FF003020AE04FEAC32152
:103C40004FEAC52041EA555140EA5650F4026FF060
:103C5000020202EB2E4201EB025585EACE710AD038
:103C60005FEA440C18BF24F0004450F1000041F119
:103C7000000120EAD47040F2FE7C624500D270BDA3
:103C8000A84214BF4FF080444FF04044002E08BFBC
:103C90000024BEF1806FA8BFA1F1C041BDE8704013
:103CA00080F2828001F1C04101F000414FF000003C
:103CB00070470CEA13159EEA0C0F18BF95EA0C0F1B
:103CC00006D081EA030E4FF000000EF0004170BDF7
:103CD00000F01CF88900013E00F007B800F009B8B8
:103CE0004FEA430C5FEA5C5C08D081EA030100F014
:103CF0005BB84FEA410C5FEA5C5CF6D102494FF0D9
:103D0000000070470000FF070000F87F0EF1020E70
:103D10002EF0030E5EF8046B364205D4012A43EB05
:103D2000030515F5001F12D8012841EB010C1CF505
:103D3000001F0CD80ED14FEAD17C0CEB4C0C0CF1CF
:103D4000020C15F5001F08BF4CEBD37C04E04FF0CC
:103D5000080C01E04FEAD37C0CEB4C0526FA05F683
:103D600006F00706B6F1040C06D20EEB860CBDE891
:103D700070404CF0010C6047DFE80CF0090B0202C8
:103D80004FF00041A1F500214FF0000070BD194631
:103D90001046012851EB010418BFD4F5001484BF6C
:103DA000002001F0004170BD0808A0F500114FEAA5
:103DB0003101704710B5FFF733FE0CBF0120002022
:103DC00010BD10B5FFF72CFE14BF0120002010BD60
:103DD00010B5FFF779FE8CBF0120002010BD10B593
:103DE000FFF772FE2CBF0120002010BD10B5FFF7B9
:103DF000A7FE94BF0120002010BD10B5FFF7A0FE64
:103E000034BF0120002010BDF1EE100A4FF6FF7103
:103E1000C0F2C03120EA010040F04070E1EE100A2B
:103E20007047FCF766BFFDF79DB80000000000007A
:103E300000000000303132333435363738394142F2
:103E400043444546403058003031323334353637FC
:103E500038396162636465664030780004000008A8
:103E600000000000000000020001000010303132AC
:103E7000333435363738396162636465667870008B
:103E80003031323334353637383941424344454690
:103E90005850000002400000000000A00000000098
:103EA00005400000000000C8000000000C400000B9
:103EB0000000409C00000000194000000020BCBE33
:103EC0000000000034400000BFC91B8E0000000449
:103ED000B5400000504BCFD06607E2CF0100000094
:103EE0006C4100003E8251AADFEEA73401000000C1
:103EF000D9420000DCB5A0E23A301F97FFFFFFFF78
:103F0000B4450000FD25A0C8E9A3C14FFFFFFFFF96
:103F1000FF3F00000000008000000000FF3F0000A5
:103F20000000008000000000400100004000000090
:103F300040020000000200002002000020000000FB
:103F40002001000000010000646F6F72206F706537
:103F50006E6564210D0A00646F6F7220636C6F736D
:103F60006564210D0A00646F6F72206973206F70A1
:103F7000656E65642E0D0A00646F6F722069732090
:103F8000636C6F7365642E0D0A0074656D706572E5
:103F9000617475726520697320746F6F206869673A
:103FA000682C20646F6F72206973206F70656E6972
:103FB0006E672E0D0A0074656D706572617475729E
:103FC0006520697320746F6F206C6F772C20646F8D
:103FD0006F7220697320636C6F73696E672E0D0AB0
:103FE0000067617261676520646F6F72206F706532
:103FF0006E696E672E0A0067617261676520646F83
:104000006F7220636C6F73696E672E0A00590A0025
:10401000416363656C65726174696F6E3A20252E29
:1040200032662C20252E32662C20252E32660D433A
:10403000757272656E742074656D706572617475E9
:1040400072653A2025640A0074727920616761699B
:104050006E207769746820612076616C69642063E2
:104060006F6D6D616E640A00636C6F73650A0000AA
:10407000C04100080000002010000000EC01000812
:10408000D041000810000020800A00000C02000847
:104090001C00000043000000F8FFFFFF0C000000C0
:1040A0000E0000000F0000002E00000010010000B4
:1040B00043000000F8FFFFFF004040404040404008
:1040C00040404141414141404040404040404040EB
:1040D000404040404040404040050202020202028F
:1040E00002020202020202020220202020202020DE
:1040F00020202002020202020202909090909090F2
:1041000010101010101010101010101010101010AF
:104110001010101002020202020288888888888823
:10412000080808080808080808080808080808080F
:104130000808080802020202400000000000000017
:10414000000000000000000000000000000000006F
:10415000000000000000000000000000000000005F
:10416000000000000000000000000000000000004F
:10417000000000000000000000000000000000003F
:10418000000000000000000000000000000000002F
:10419000000000000000000000000000000000001F
:1041A000000000000000000000000000000000000F
:1041B00000000000000000000000000000000000FF
:1041C00073010020010000007302002000000000C5
:040000050800018965
:00000001FF
